:100000000C9434000C948A040C944F000C944F0010
:100010000C944F000C944F000C944F000C944F0024
:100020000C944F000C944F000C944F000C946304FC
:100030000C944F000C944F000C944F000C944F0004
:100040000C944F000C944F000C940F040C944F0030
:100050000C944F000C944F000C944F000C944F00E4
:100060000C944F000C944F0011241FBECFEFD1E031
:10007000DEBFCDBF12E0A0E0B1E0E6EAF9E002C0E9
:1000800005900D92A032B107D9F712E0A0E2B2E0DC
:1000900001C01D92AC3AB107E1F70E94FE000C943A
:1000A0000000CF93DF93EC018091490290E09C0126
:1000B000220F331F280F391FF901EE0FFF1FEE0F1C
:1000C000FF1FE20FF31FDE01E55BFD4F8FE00190A4
:1000D0000D928150E1F7809149028883DF91CF91A1
:1000E0000895089508950895FC0180914A0280833F
:1000F0000895FC01808180934A0208950E94E702DE
:1001000008950E94E5020895662321F490E00E947C
:100110009C0308950E9462030895CF93DF9390910A
:1001200049028FE0989FE0011124C55BDD4F82E01A
:1001300069810E94840083E06A810E94840084E0D7
:100140006B810E94840085E06C810E94840086E0BF
:100150006D810E94840087E06E810E94840088E0A7
:100160006F810E94840089E068850E9484008AE093
:1001700069850E9484008BE06A850E9484008CE07F
:100180006B850E9484008DE06C850E9484008EE067
:100190006D850E9484008FE06E850E948400DF914F
:1001A000CF910895AC0180914A02813009F0089501
:1001B0008091490290E09C01220F331F280F391FC4
:1001C000F901EE0FFF1FEE0FFF1FE20FF31FE55BBC
:1001D000FD4FDA018FE00D9001928150E1F70E940E
:1001E0008D000895FC0180914A02813009F0089544
:1001F0008081809349020E948D0008950E9402032D
:100200000E94A4020E94310308951F93182F0E9498
:10021000D603682F80912E0290912F02892B31F105
:100220002091250230912602409127025091280208
:1002300081E090E002C0880F991F1A95E2F7AA2783
:1002400097FDA095BA2F282B392B4A2B5B2B209397
:10025000250230932602409327025093280210E093
:10026000862F0E940904812F1F9108952091250255
:100270003091260240912702509128022115310524
:1002800041055105A9F611E0EBCF8CE892E090937F
:100290002A028093290280918D028F5F80937902D8
:1002A0001092A9020E94FB030895982F80912002CA
:1002B000882309F4089510928C0290938E026C5F4B
:1002C00060938D0280E00E940501882399F30E94CB
:1002D0004501089580918F02833099F1843048F070
:1002E0008430E9F0853091F084E060E00E945501AF
:1002F00008958130E9F08230B9F781E992E00E94F7
:10030000D20084E060E00E945501089581E992E006
:100310000E94790084E060E00E945501089581E91F
:1003200092E00E94730084E060E00E94550108950D
:1003300081E992E00E94F20084E060E00E945501B1
:10034000089581E992E00E94710084E060E00E94DB
:100350005501089580918F028430D9F0853081F065
:10036000823029F060E082E00E945501089581E921
:1003700092E00E9451006FE082E00E9455010895D2
:1003800081E992E00E94740061E082E00E945501E0
:10039000089581E992E00E94720067E082E00E9485
:1003A0005501089580918F028B3F41F410922102F4
:1003B00010922202109223021092240284E060E044
:1003C0000E945501089580918F028A3F09F451C01F
:1003D0008B3F48F08C3F09F18D3FA1F060E082E057
:1003E0000E9455010895853F39F1893FB9F785E0AD
:1003F0008093910289E08093920262E082E00E9401
:10040000550108958DE090E09093920280939102BF
:1004100062E082E00E9455010895E5E1F2E0A1E981
:10042000B2E081918D9382E0ED31F807D1F768E079
:1004300082E00E94550108954091310250913202AC
:100440004115510559F2A1E9B2E020E030E0FA018E
:10045000E20FF31F80818C938823F1F02F5F3F4FD1
:1004600011962930310599F769E082E00E94550123
:100470000895E2E0F2E0A1E9B2E081918D9382E09B
:10048000E531F807D1F780911D028093A40264E161
:1004900082E00E9455010895293031052CF7F901B9
:1004A000EF56FD4F119282E0EA39F807D9F769E07B
:1004B000DCCF1F930E94D603182F809125029091C4
:1004C0002602A0912702B09128020097A105B1054C
:1004D00069F080FF0BC08E7F8093250290932602E7
:1004E000A0932702B09328020E944501812F0E9409
:1004F00009041F9108950E94DA0310922F021092AE
:100500002E0210922C0210922B02109230021092A6
:100510002D02109279021092A90210928802109274
:100520007802109220021092210210922202109260
:100530002302109224021092250210922602109299
:1005400027021092280208950E947B0281E0809386
:100550002002089580912002882351F080918E021C
:10056000863091F0873028F08730E1F08A3091F0C2
:1005700008958130E9F08330D9F780918F0287FDAB
:100580001EC00E946A01089583E0809320020E94A9
:1005900081000895E091A502F091A602309741F301
:1005A0000995089582E0809320020E947E000895BC
:1005B00080918F0287FD06C00E94AA0108950E94C3
:1005C000D20108950E94E30108952A9A08952A9875
:1005D00008950097B1F020E030E000000000000036
:1005E000000000000000000000000000000000000B
:1005F00000002F5F3F4F43E0283E340771F701971B
:1006000051F70895539A559A569A579A209A219AD3
:10061000229A249A239A259A389A399A3A9A549A7D
:1006200052985A9AE9E6F0E08081836080833B9A91
:10063000439A10928000109281001092C50088E0C9
:100640008093C400E1ECF0E080818861808386E0E3
:100650008093C2008AEA92E090933A028093390232
:100660000895EF92FF920F931F93CF93DF937894A7
:10067000F894E0903302F090340210923402109219
:100680003302E114F104E1F07894C5E3D2E001E033
:1006900010E0C8018E219F21892B29F0E881F98182
:1006A000309709F00995229682E0CB33D80701F301
:1006B000000F111FC8018E219F21892BA1F3EECFBE
:1006C0007894D6CF8830B1F1893060F08C3051F118
:1006D0008D3090F08E3051F18E30F0F08F3009F483
:1006E000419A0895843021F1853060F08630C1F060
:1006F000873070F05F9A08958A30B1F08B3050F0F7
:100700002B9A0895823051F0833059F75B9A0895FF
:100710005D9A0895299A08952D9A0895429A089508
:100720005E9A08952C9A08952A9A0895409A0895F9
:100730005C9A0895289A08958830B1F1893060F064
:100740008C3051F18D3090F08E3051F18E30F0F0D0
:100750008F3009F441980895843021F1853060F09C
:100760008630C1F0873070F05F9808958A30B1F01C
:100770008B3050F02B980895823051F0833059F728
:100780005B9808955D980895299808952D98089587
:10079000429808955E9808952C9808952A9808958F
:1007A000409808955C980895289808958FB7F89414
:1007B000807808951F931FB7F894439884E690E0DB
:1007C0000E94E902439A84EF91E00E94E90280913D
:1007D000C00080688093C000E09A8091C10080686A
:1007E0008093C100E89A17FD03C0F8941F91089503
:1007F00078941F9108958091290290912A02019680
:1008000090932F0280932E02109230021092C60015
:100810000895882311F4F8940895789408951F9208
:100820000F920FB60F9211242F938F939F93EF93F4
:10083000FF9380912B0290912C02892BD9F19091FA
:10084000C60080912D02882381F4992361F4439896
:10085000439AFF91EF919F918F912F910F900FBE2F
:100860000F901F90189590932D02E0912B02F0911C
:100870002C029193F0932C02E0932B0280912D0295
:10088000815080932D02882311F710922C02109230
:100890002B022FB7F8948091330290913402846038
:1008A000909334028093330227FD02C0F894CFCF97
:1008B0007894CDCF809100029091010290932C0208
:1008C00080932B02BCCF1F920F920FB60F92112470
:1008D0002F938F939F932FB7F89480913302909129
:1008E00034028260909334028093330227FD09C062
:1008F000F8949F918F912F910F900FBE0F901F90A2
:10090000189578949F918F912F910F900FBE0F9013
:100910001F9018951F920F920FB60F9211242F93CC
:100920003F934F935F936F937F938F939F93AF9377
:10093000BF93EF93FF93E0912E02F0912F02309737
:1009400081F0809130028823F1F081508093300251
:10095000882301F18191F0932F02E0932E0280937E
:10096000C600E09AFF91EF91BF91AF919F918F9157
:100970007F916F915F914F913F912F910F900FBE9B
:100980000F901F90189580818F5F81508093300267
:10099000882301F710922F0210922E0210927902F2
:0609A0000E945902DECFA7
:1009A6000000000000000000000000000000000041
:1009B6000000000000000000000000000000000031
:1009C6000000000000000000000000000000000021
:1009D6000000000000000000000000000000000011
:1009E6000000000000000000000000000000000001
:1009F60000000000000000000000000000000000F1
:100A060000000000000000000000000000000000E0
:100A160000000000000000000000000000000000D0
:100A260000000000000000000000000000000000C0
:100A360000000000000000000000000000000000B0
:100A460000000000000000000000000000000000A0
:100A56000000000000000000000000000000000090
:100A66000000000000000000000000000000000080
:100A76000000000000000000000000000000000070
:100A86000000000000000000000000000000000060
:100A96000000000000000000000000000000000050
:100AA6008D020C8B94458AC5ED24B88C9A490C9B13
:100AB600100D0D0011C6ED0F50430100000001009E
:040000030000006891
:00000001FF
