:100000000C9434000C9460050C944F000C944F0039
:100010000C944F000C944F000C944F000C944F0024
:100020000C944F000C944F000C944F000C94390525
:100030000C944F000C944F000C944F000C944F0004
:100040000C944F000C944F000C94E5040C944F005A
:100050000C944F000C944F000C944F000C944F00E4
:100060000C944F000C944F0011241FBECFEFD1E031
:10007000DEBFCDBF12E0A0E0B1E0E0EAFBE002C0ED
:1000800005900D92A43AB107D9F712E0A4EAB2E0C4
:1000900001C01D92AC3FB107E1F70E94CE000C9465
:1000A0000000FC0180818093A802882361F41092F3
:1000B000AA021092A9021092A5021092A402109214
:1000C000AC021092AB020895FC018091A4029091C1
:1000D000A50291838083059734F084E090E09093AB
:1000E000A5028093A4020895FC0120813181309300
:1000F000A5022093A40221153105D9F0C901019769
:1001000064E070E00E94BD05FC01EE0FFF1FE050AF
:10011000FE4F808191819093A7028093A6022530A3
:1001200031055CF084E090E09093A5028093A402F6
:1001300008951092A7021092A6020895FC018091E2
:1001400008029091090263E070E00E94A9057183A2
:1001500060830895FC0180819181909309028093CE
:10016000080208950F931F938C010E947C04F801EC
:1001700080831F910F9108950E94A7038FEF9FEF37
:1001800090930B0280930A0208950E948D0388EBDE
:100190009BE090930B0280930A0208950E94A803AB
:1001A00088EC90E06BED70E00E948D040E944C039F
:1001B0000E94D7030895EF92FF920F931F93CF935E
:1001C000DF9380910A0290910B02009709F46CC0B2
:1001D000181619062CF40A9790930B0280930A02C2
:1001E0008091A802813009F44BC02091A90230917E
:1001F000AA0280910802909109022817390708F491
:1002000046C0E091A602F091A702309709F460C0C1
:100210008091AB029091AC029C01220F331FE20F40
:10022000F31F0081118101969093AC028093AB0281
:100230000F9709F448C0C2E0D0E091E0E92EF12C1C
:1002400007C0CE010E9408042196C031D10591F06B
:10025000C7010C2E02C0880F991F0A94E2F7802371
:100260009123892B71F7CE010E9442042196C0315F
:10027000D10571F71092AA021092A9020E94CE0233
:10028000DF91CF911F910F91FF90EF90089528512A
:100290003C4F3093AA022093A902DF91CF911F9186
:1002A0000F91FF90EF9008950E940E038FEF9FEF44
:1002B00090930B0280930A02DF91CF911F910F91CF
:1002C000FF90EF9008951092AC021092AB02B3CF62
:1002D0000E948804CFCF1F93182F0E94AC04682F70
:1002E0008091BB029091BC02892B31F12091B20226
:1002F0003091B3024091B4025091B50281E090E098
:1003000002C0880F991F1A95E2F7AA2797FDA095BA
:10031000BA2F282B392B4A2B5B2B2093B202309318
:10032000B3024093B4025093B50210E0862F0E94AE
:10033000DF04812F1F9108952091B2023091B30202
:100340004091B4025091B502211531054105510586
:10035000A9F611E0EBCF8CED92E09093B702809379
:10036000B6028091DD028F5F8093C9021092F9027C
:100370000E94D1040895982F8091AD02882309F43A
:1003800008951092DC029093DE026C5F6093DD02B0
:1003900080E00E946B01882399F30E94AB010895CD
:1003A0008091DF028230D9F0833081F0813029F0F2
:1003B00084E060E00E94BB01089581EE92E00E941B
:1003C000510084E060E00E94BB01089581EE92E05C
:1003D0000E94AA0084E060E00E94BB01089581EEC3
:1003E00092E00E94740084E060E00E94BB010895E6
:1003F0008091DF028330D9F0843081F0823029F09F
:1004000060E082E00E94BB01089581EE92E00E94CC
:10041000640062E082E00E94BB01089581EE92E0F8
:100420000E94B20061E082E00E94BB01089581EE6B
:1004300092E00E949E0062E082E00E94BB0108956B
:100440008091DF028B3F41F41092AE021092AF0216
:100450001092B0021092B10284E060E00E94BB01F1
:1004600008958091DF028A3F09F451C08B3F48F024
:100470008C3F09F18D3FA1F060E082E00E94BB015A
:100480000895853F39F1893FB9F784E08093E1020F
:1004900089E08093E20262E082E00E94BB0108955D
:1004A0008DE090E09093E2028093E10262E082E0CE
:1004B0000E94BB010895E9E9F2E0A1EEB2E081916A
:1004C0008D9382E0E13AF807D1F768E082E00E947C
:1004D000BB0108954091BE025091BF0241155105E4
:1004E00059F2A1EEB2E020E030E0FA01E20FF31F92
:1004F00080818C938823F1F02F5F3F4F1196293034
:10050000310599F769E082E00E94BB010895E6E8B1
:10051000F2E0A1EEB2E081918D9382E0E939F80733
:10052000D1F78091A1028093F40264E182E00E94FD
:10053000BB010895293031052CF7F901EF51FD4F2A
:10054000119282E0EA3EF807D9F769E0DCCF8FEC40
:1005500092E09093B7028093B6028091D0028F5FB1
:100560008093C9021092F9020E94D104089581304B
:1005700071F020E094E01092CF0285E08093D102E8
:100580009093D0022093D2020E94A702089584ED96
:1005900092E00E94B20024E095E0EDCF8091AD02A0
:1005A000833009F0089582E00E946B018823D1F323
:1005B00081E00E94B70208951F930E94AC04182F97
:1005C0008091B2029091B302A091B402B091B502B1
:1005D0000097A105B10521F080FD14C081FD05C083
:1005E000812F0E94DF041F9108958D7F8093B202B6
:1005F0009093B302A093B402B093B50280E00E943E
:10060000B702EECF8E7F8093B2029093B302A09395
:10061000B402B093B5020E94AB01E2CF8091AD026B
:10062000833009F0089582E08093AD021092CF02EA
:1006300087E08093D10284E08093D0021092D202AE
:100640000E94A70208950E94B0041092BC0210926A
:10065000BB021092B9021092B8021092BD02109221
:10066000BA021092C9021092F9021092D8021092A6
:10067000C8021092AD021092AE021092AF02109218
:10068000B0021092B1021092B2021092B302109214
:10069000B4021092B50208950E94230381E0809372
:1006A000AD0208958091AD02882351F08091DE0261
:1006B000863091F0873028F08730E1F08A3091F071
:1006C00008958130E9F08330D9F78091DF0287FD0A
:1006D0001EC00E94D001089583E08093AD020E9465
:1006E000C5000895E091F502F091F602309741F3CC
:1006F0000995089582E08093AD020E94BC000895A0
:100700008091DF0287FD06C00E94F80108950E94D3
:10071000200208950E943102089508950097B1F0D3
:1007200020E030E0000000000000000000000000B9
:100730000000000000000000000000002F5F3F4F9D
:1007400043E0283E340771F7019751F70895089563
:10075000539A559A569A579A209A219A229A249AED
:10076000239A259A389A399A3A9A549A52985A9AC8
:10077000E9E6F0E08081836080833B9A439A10929F
:100780008000109281001092C50088E08093C40020
:10079000E1ECF0E080818861808386E08093C20094
:1007A00082E593E09093C7028093C6020895EF928A
:1007B000FF920F931F93CF93DF937894F894E09078
:1007C000C002F090C1021092C1021092C002E11466
:1007D000F104E1F07894C2ECD2E001E010E0C8014D
:1007E0008E219F21892B29F0E881F981309709F02A
:1007F0000995229682E0C83CD80701F3000F111F2B
:10080000C8018E219F21892BA1F3EECF7894D6CFFA
:100810008830B1F1893060F08C3051F18D3090F03A
:100820008E3051F18E30F0F08F3009F4419A0895F6
:10083000843021F1853060F08630C1F0873070F06F
:100840005F9A08958A30B1F08B3050F02B9A08955A
:10085000823051F0833059F75B9A08955D9A08957C
:10086000299A08952D9A0895429A08955E9A0895B6
:100870002C9A08952A9A0895409A08955C9A0895AA
:10088000289A08958830B1F1893060F08C3051F1A8
:100890008D3090F08E3051F18E30F0F08F3009F4C1
:1008A00041980895843021F1853060F08630C1F0A0
:1008B000873070F05F9808958A30B1F08B3050F037
:1008C0002B980895823051F0833059F75B98089542
:1008D0005D980895299808952D980895429808954F
:1008E0005E9808952C9808952A9808954098089540
:1008F0005C9808952898089585B190E0969587951D
:10090000929582958F7089279F70892781700895AD
:1009100085B190E2892785B908957093C5026093E7
:10092000C4029C01329522952F7023273F70232704
:10093000209389008295807F8093880010928500A3
:1009400010928400B198EFE6F0E0808182608083AD
:100950008DE08093810008958FB7F8948078089592
:100960001F931FB7F894439884E690E00E948E038B
:10097000439A84EF91E00E948E038091C0008068CA
:100980008093C000E09A8091C10080688093C1008C
:10099000E89A17FD03C0F8941F91089578941F9169
:1009A00008958091B6029091B70201969093BC028F
:1009B0008093BB021092BD021092C6000895882356
:1009C00011F4F8940895789408951F920F920FB639
:1009D0000F9211242F938F939F93EF93FF93809106
:1009E000B8029091B902892BD9F19091C6008091FB
:1009F000BA02882381F4992361F44398439AFF91C2
:100A0000EF919F918F912F910F900FBE0F901F909C
:100A100018959093BA02E091B802F091B9029193BF
:100A2000F093B902E093B8028091BA0281508093AA
:100A3000BA02882311F71092B9021092B8022FB7A8
:100A4000F8948091C0029091C10284609093C10299
:100A50008093C00227FD02C0F894CFCF7894CDCF09
:100A600080916602909167029093B9028093B802D8
:100A7000BCCF1F920F920FB60F9211242F938F931A
:100A80009F932FB7F8948091C0029091C102826029
:100A90009093C1028093C00227FD09C0F8949F91F2
:100AA0008F912F910F900FBE0F901F9018957894F3
:100AB0009F918F912F910F900FBE0F901F901895BF
:100AC0001F920F920FB60F9211242F933F934F93C3
:100AD0005F936F937F938F939F93AF93BF93EF93A6
:100AE000FF93E091BB02F091BC02309781F08091BE
:100AF000BD028823F1F081508093BD02882301F16B
:100B00008191F093BC02E093BB028093C600E09A0F
:100B1000FF91EF91BF91AF919F918F917F916F91D5
:100B20005F914F913F912F910F900FBE0F901F90AB
:100B3000189580818F5F81508093BD02882301F7D3
:100B40001092BC021092BB021092C9020E94DC02F9
:100B5000DECFAA1BBB1B51E107C0AA1FBB1FA617F4
:100B6000B70710F0A61BB70B881F991F5A95A9F756
:100B700080959095BC01CD01089597FB092E07261D
:100B80000AD077FD04D0E5DF06D000201AF4709576
:100B900061957F4F0895F6F7909581959F4F089541
:100BA0000000000000000000000000000000000045
:100BB0000000000000000000000000000000000035
:100BC0000000000000000000000000000000000025
:100BD0000000000000000000000000000000000015
:100BE0000000000000000000000000000000000005
:100BF00000000000000000000000000000000000F5
:100C000000000000000000000000000000000000E4
:100C100000000000000000000000000000000000D4
:100C200000000000000000000000000000000000C4
:100C300000000000000000000000000000000000B4
:100C400000000000000000000000000000000000A4
:100C50000000000000000000000000000000000094
:100C60000000000000000000000000000000000084
:100C70000000000000000000000000000000000074
:100C80000000000000000000000000000000000064
:100C90000000000000000000000000000000000054
:100CA00068020C022A024802E803FFFF040208045B
:100CB00010082010402080400081804040202010FB
:100CC00010080804040200000000FFFF0000FFFFFE
:100CD0000000FFFF0000FFFF0000FFFF0000FFFF1C
:100CE0000000FFFF0000FFFF0480084010202010DC
:100CF00040088004000304800840102020104008B1
:100D0000800400030480DD02002000300038003C35
:100D1000003E003F803FC03F000000000000000098
:100D20000000000000006485CC76AB69C4B0A53D2E
:100D3000B1A0BEBFC2F10D001176C394A54201005F
:040D400000000100AE
:040000030000006891
:00000001FF
